{
  "contractName": "CryptoRoses",
  "abi": [
    {
      "constant": false,
      "inputs": [
        {
          "name": "s",
          "type": "address"
        }
      ],
      "name": "addAddWhitelist",
      "outputs": [],
      "payable": false,
      "stateMutability": "nonpayable",
      "type": "function"
    },
    {
      "constant": false,
      "inputs": [
        {
          "name": "gaddrHash",
          "type": "bytes32"
        },
        {
          "name": "memo",
          "type": "string"
        },
        {
          "name": "amntSent",
          "type": "uint256"
        }
      ],
      "name": "buyRoseGRLC",
      "outputs": [],
      "payable": false,
      "stateMutability": "nonpayable",
      "type": "function"
    },
    {
      "constant": true,
      "inputs": [
        {
          "name": "h",
          "type": "bytes32"
        }
      ],
      "name": "checkRose",
      "outputs": [
        {
          "name": "",
          "type": "bool"
        },
        {
          "name": "",
          "type": "uint256"
        },
        {
          "name": "",
          "type": "string"
        }
      ],
      "payable": false,
      "stateMutability": "view",
      "type": "function"
    },
    {
      "constant": false,
      "inputs": [
        {
          "name": "memo",
          "type": "string"
        }
      ],
      "name": "buyRoseETH",
      "outputs": [],
      "payable": true,
      "stateMutability": "payable",
      "type": "function"
    },
    {
      "inputs": [
        {
          "name": "_name",
          "type": "bytes32"
        }
      ],
      "payable": false,
      "stateMutability": "nonpayable",
      "type": "constructor"
    }
  ],
  "bytecode": "0x6060604052341561000f57600080fd5b6040516020806106c78339810160405280805160008054600160a060020a033316600160a060020a03199091161790556001555050610674806100536000396000f3006060604052600436106100615763ffffffff7c01000000000000000000000000000000000000000000000000000000006000350416633ae24412811461006657806346a60e9914610087578063856c6bd1146100df578063943fcc9d1461017d575b600080fd5b341561007157600080fd5b610085600160a060020a03600435166101c3565b005b341561009257600080fd5b610085600480359060446024803590810190830135806020601f82018190048102016040519081016040528181529291906020840183838082843750949650509335935061020292505050565b34156100ea57600080fd5b6100f5600435610303565b60405183151581526020810183905260606040820181815290820183818151815260200191508051906020019080838360005b83811015610140578082015183820152602001610128565b50505050905090810190601f16801561016d5780820380516001836020036101000a031916815260200191505b5094505050505060405180910390f35b61008560046024813581810190830135806020601f820181900481020160405190810160405281815292919060208401838380828437509496506103fb95505050505050565b60005433600160a060020a039081169116146101de57600080fd5b600160a060020a03166000908152600360205260409020805460ff19166001179055565b600160a060020a03331660009081526003602052604081205460ff1680610237575060005433600160a060020a039081169116145b151561024257600080fd5b6032821061025257506000610287565b600a821061026257506001610287565b6004821061027257506002610287565b6002821061028257506002610287565b6102fd565b60008481526002602052604090205460ff16156102a3576102fd565b6000848152600260205260409020805460ff191660011780825582919061ff0019166101008360038111156102d457fe5b021790555060008481526002602052604090206001018380516102fb92916020019061059b565b505b50505050565b60008061030e610619565b60008481526002602052604090205460ff80821691610100900416600381111561033457fe5b600260008760001916600019168152602001908152602001600020600101808054600181600116156101000203166002900480601f0160208091040260200160405190810160405280929190818152602001828054600181600116156101000203166002900480156103e75780601f106103bc576101008083540402835291602001916103e7565b820191906000526020600020905b8154815290600101906020018083116103ca57829003601f168201915b505050505090509250925092509193909250565b343360008082604051600160a060020a03919091166c0100000000000000000000000002815260140160405190819003902091506703782dace9d900008410610446575060006104be565b66b1a2bc2ec50000841061045c575060016104be565b66470de4df8200008410610472575060026104be565b662386f26fc100008410610488575060026104be565b600160a060020a03831684156108fc0285604051600060405180830381858888f1935050505015156104b957600080fd5b6102fb565b60008281526002602052604090205460ff161561050657600160a060020a03831684156108fc0285604051600060405180830381858888f1935050505015156104b957600080fd5b6000828152600260205260409020805460ff191660011780825582919061ff00191661010083600381111561053757fe5b0217905550600082815260026020526040902060010185805161055e92916020019061059b565b507319ed10db2960b9b21283fdfde464e7bf3a87d05d84156108fc0285604051600060405180830381858888f1935050505015156102fb57600080fd5b828054600181600116156101000203166002900490600052602060002090601f016020900481019282601f106105dc57805160ff1916838001178555610609565b82800160010185558215610609579182015b828111156106095782518255916020019190600101906105ee565b5061061592915061062b565b5090565b60206040519081016040526000815290565b61064591905b808211156106155760008155600101610631565b905600a165627a7a72305820221392c84881a4807d5a10b127484280e998f94b053614ec61dfb0f26ba9d4d30029",
  "source": "pragma solidity ^0.4.17;\n\ncontract CryptoRoses {\n  address constant DESTINATION_ADDRESS = 0x19Ed10db2960B9B21283FdFDe464e7bF3a87D05D;\n  address owner;\n  bytes32 name;\n\n  enum Rose { Gold, White, Pink, Red }\n\n  struct RoseOwner {\n      bool hasRose;\n      Rose roseType;\n      string memo;\n  }\n\n  mapping (bytes32 => RoseOwner) roseOwners;\n  mapping (address => bool) addrWhitelist;\n\n  function CryptoRoses(bytes32 _name) public {\n      owner = msg.sender;\n      name = _name;\n  }\n\n  function addAddWhitelist(address s) public {      \n      require(msg.sender == owner);\n\n      addrWhitelist[s] = true;\n  }\n\n  // 0.25 ETH (250000000000000000 wei) for a Gold Rose\n  // 50 Garlicoin for a Gold Rose\n\n  // 0.05 ETH (50000000000000000 wei) for a White Rose\n  // 10 Garlicoin for a White Rose\n\n  // 0.02 ETH (20000000000000000 wei) for a Pink rose\n  // 4 Garlicoin for a Pink Rose\n\n  // 0.01 ETH (10000000000000000 wei) for a Red Rose\n  // 2 Garlicoin for a Red Rose\n\n  uint constant ETH_GOLD_ROSE_PRICE = 250000000000000000;\n  uint constant ETH_WHITE_ROSE_PRICE = 50000000000000000;\n  uint constant ETH_PINK_ROSE_PRICE = 20000000000000000;\n  uint constant ETH_RED_ROSE_PRICE = 10000000000000000;\n\n  // Buy Rose with ETH\n  function buyRoseETH(string memo) public payable {\n      uint amntSent = msg.value;\n      address sender = msg.sender;\n      bytes32 senderHash = keccak256(sender);\n\n      Rose roseType;\n\n      // Assign rose \n      if (amntSent >= ETH_GOLD_ROSE_PRICE) {\n          roseType = Rose.Gold;\n      } else if (amntSent >= ETH_WHITE_ROSE_PRICE) {\n          roseType = Rose.White;\n      } else if (amntSent >= ETH_PINK_ROSE_PRICE) {\n          roseType = Rose.Pink;\n      } else if (amntSent >= ETH_RED_ROSE_PRICE) {\n          roseType = Rose.Pink;\n      } else {\n          sender.transfer(amntSent);\n          return;\n      }\n\n      // No double buying roses\n      if (roseOwners[senderHash].hasRose) {\n          sender.transfer(amntSent);\n          return;\n      }\n\n      roseOwners[senderHash].hasRose = true;\n      roseOwners[senderHash].roseType = roseType;\n      roseOwners[senderHash].memo = memo;\n\n      DESTINATION_ADDRESS.transfer(amntSent);\n  }\n\n  uint constant GRLC_GOLD_ROSE_PRICE = 50;\n  uint constant GRLC_WHITE_ROSE_PRICE = 10;\n  uint constant GRLC_PINK_ROSE_PRICE = 4;\n  uint constant GRLC_RED_ROSE_PRICE = 2;\n\n  function buyRoseGRLC(bytes32 gaddrHash, string memo, uint amntSent) public {\n      // Only a trusted oracle can call this function\n      require(addrWhitelist[msg.sender] || owner == msg.sender);\n\n      Rose roseType;\n\n      // Assign rose \n      if (amntSent >= GRLC_GOLD_ROSE_PRICE) {\n          roseType = Rose.Gold;\n      } else if (amntSent >= GRLC_WHITE_ROSE_PRICE) {\n          roseType = Rose.White;\n      } else if (amntSent >= GRLC_PINK_ROSE_PRICE) {\n          roseType = Rose.Pink;\n      } else if (amntSent >= GRLC_RED_ROSE_PRICE) {\n          roseType = Rose.Pink;\n      } else {          \n          return;\n      }\n\n      // No double buying roses\n      if (roseOwners[gaddrHash].hasRose) {          \n          return;\n      }\n\n      roseOwners[gaddrHash].hasRose = true;\n      roseOwners[gaddrHash].roseType = roseType;\n      roseOwners[gaddrHash].memo = memo;\n  }\n\n  // No refunds fam soz not soz\n  function checkRose(bytes32 h) public constant returns (bool, uint, string) {\n      return (roseOwners[h].hasRose, uint(roseOwners[h].roseType), roseOwners[h].memo);\n  }\n}\n",
  "sourcePath": "/home/kendrick/Development/JavaScript/cryptoroses.us/contracts/CryptoRoses.sol",
  "compiler": {
    "name": "solc",
    "version": "0.4.18+commit.9cf6e910.Emscripten.clang"
  },
  "schemaVersion": "1.0.1",
  "updatedAt": "2018-01-27T13:51:46.709Z"
}